:100959001F8FC7E3F1F801020408102040807FBF10
:06096900DFEFF7FBFDFECD
:0D098200EFD3940040077E6EDEFE1F80F371
:01098F002245
:0E099000750E40E4F58075A0FF7F100209820D
:1008570020B31F758CFE758A0BE508D39400400200
:10086700150820B30AAF0812094212092780F3E4DA
:10087700F50920B21F758CFE758A0BE508C3940530
:100887005002050820B20AAF081209421209278050
:05089700F3E4F5092265
:1009420090095FE493F5A0EF90095993F5807F0732
:070952001209827580FF22EB
:04092700AD0AAF0B5B
:10092B00EF90095F93F5A0ED90096793F5807F0534
:07093B001209827580FF2202
:10090000E4F50FF50890095F93F5A0750A02750BE1
:1009100003750C01750D01D2AF758901D2A9758CD3
:06092000FE758A0BD28C6B
:0109260022AE
:10089C00E50A7008E50CB4FF03750C01E50AB40712
:1008AC0008E50CB40103750CFFE50BB40708E50D66
:1008BC00B40103750DFFE50BB40108E50DB4FF039E
:0408CC00750D012283
:0A09AA00C2B47FD0120982D2B42239
:1008D000E50BB4012AE50A65086024AF087E00EF45
:1008E0002401FDEE33FCAB0AEB6D7001EC6010EF00
:1008F0002402FFEE33FEEB6F7001EE6002C28C2229
:10096F001209001208D012089CAF0812094212098E
:03097F002780F0DE
:03000B00020800E8
:10080000C0E0C0F0C083C082C0D075D000C000C0BE
:1008100001C002C003C004C005C006C007758CFE3D
:10082000758A0B0509E509B4C81275090012085745
:10083000E50C250AF50AE50D250BF50BD007D006CA
:10084000D005D004D003D002D001D000D0D0D082C7
:07085000D083D0F0D0E032AC
:0300000002099E54
:0C099E00787FE4F6D8FD75810F02096F28
:00000001FF
